:100000000C9434000C9449000C9449000C94490061
:100010000C9449000C9449000C9449000C9449003C
:100020000C9449000C9449000C9449000C9449002C
:100030000C9449000C9449000C9449000C9449001C
:100040000C9449000C9449000C9449000C9449000C
:100050000C9449000C9449000C9449000C944900FC
:100060000C9449000C94490011241FBECFEFD8E036
:10007000DEBFCDBF11E0A0E0B1E0EEEAF1E002C0EA
:1000800005900D92A230B107D9F70E94B0000C94F0
:10009000D5000C940000E0910001F091010183E093
:1000A000828388E18183158287E684830895E091C5
:1000B0000001F0910101908195FFFDCF86830895A5
:1000C000E0910001F0910101808187FFFDCF8681E1
:1000D0000895CF93DF9300D0CDB7DEB727EB32E0A2
:1000E000AC01429FC001439F900D529F900D11247F
:1000F0001A82198229813A812817390738F429810F
:100100003A812F5F3F4F3A832983F4CF0F900F90AE
:10011000DF91CF910895EF92FF920F931F93CF93AA
:10012000DF9300D0CDB7DEB77C018B011A82198234
:1001300089819A818017910748F4C7010E9469005C
:1001400089819A8101969A838983F2CF0F900F90CB
:10015000DF91CF911F910F91FF90EF900895089537
:100160000E944B0083E70E94570084E70E945700DB
:1001700081E60E94570082E70E94570084E70E94B0
:1001800057008DE00E9457008AE00E9457000E94AD
:100190006000C82F0E9457008DE00E9457008AE03F
:0E01A0000E945700C13799F7FFCFF894FFCFA8
:0201AE00C0008F
:00000001FF
