:100000000C9434000C9451000C9451000C94510049
:100010000C9451000C9451000C9451000C9451001C
:100020000C9451000C9451000C9451000C9451000C
:100030000C9451000C9451000C9451000C945100FC
:100040000C9451000C9451000C9451000C945100EC
:100050000C9451000C9451000C9451000C945100DC
:100060000C9451000C94510011241FBECFEFD8E026
:10007000DEBFCDBF11E0A0E0B1E0EAE8F3E002C0EE
:1000800005900D92AE30B107D9F721E0AEE0B1E0B6
:1000900001C01D92A031B207E1F70E945F010C94EC
:1000A000C3010C940000E0910A01F0910B018081E2
:1000B0008268808381818A618183828182838CE9E5
:1000C00087838FE386838FE081878FE9808714821F
:1000D000158280E090E0089523E1AC01249FC001E7
:1000E000259F900D11248053984FAC01990F660BFA
:1000F000770B452F562F672F772767FD7A95E0916D
:100100000A01F0910B014187808780E090E008951B
:10011000CF93DF9300D0CDB7DEB727EB32E0AC0151
:10012000429FC001439F900D529F900D11241A824F
:10013000198229813A812817390738F429813A81AF
:100140002F5F3F4F3A832983F4CF0F900F90DF91B9
:10015000CF910895EF92FF920F931F93CF93DF9368
:1001600000D0CDB7DEB77C018B011A82198289815C
:100170009A818017910748F4C7010E9488008981FD
:100180009A8101969A838983F2CF0F900F90DF9125
:10019000CF911F910F91FF90EF9008950895E091F6
:1001A0000C01F0910D0186E0828388E18183158244
:1001B00087E684830895E0910C01F0910D01908110
:1001C00095FFFDCF868308950F931F93CF93DF9301
:1001D0008C01C0E0F801EC0FF11DC7FDFA95D0814C
:1001E0008D2F0E94DB00CF5FD111F4CFDF91CF9133
:1001F0001F910F910895AF92BF92CF92DF92EF922D
:10020000FF920F931F93CF93DF93CDB7DEB7AC016F
:100210008B01ADB6BEB68DB79EB7861B970B0FB6DA
:10022000F8949EBF0FBE8DBFEDB7FEB731967F012C
:100230009B01EAE0F0E0121613066CF4CA01BF015C
:100240000E949B01AB0121503109D701A20FB31FBE
:10025000805D8C93F0CF6701C6018E199F098017CE
:10026000910734F4F60181916F010E94DB00F4CF15
:100270000FB6F894BEBE0FBEADBEDF91CF911F91F9
:100280000F91FF90EF90DF90CF90BF90AF900895C7
:10029000E0910C01F0910D018081082E000C990B6A
:1002A000892F881F8827881F90E00895E0910C010E
:1002B000F0910D01808187FFFDCF86810895E09147
:1002C0000201F0910301808182608083E09100014E
:1002D000F091010180818C6080830E9453000E9414
:1002E000CF0000E010E0E0910401F0910501C08131
:1002F00085E090E00E948800CC708C2F90E095956E
:10030000879595958795813019F0823039F00BC02B
:100310000436110544F40B5F1F4F05C0101611067B
:1003200014F405501109C8010E946C0084E190E0AA
:100330000E948800D8CF97FB072E16F4009407D0B0
:1003400077FD09D00E94AF0107FC05D03EF49095DF
:1003500081959F4F0895709561957F4F0895AA1BD1
:10036000BB1B51E107C0AA1FBB1FA617B70710F0A0
:10037000A61BB70B881F991F5A95A9F780959095D2
:0A038000BC01CD010895F894FFCFF1
:0E038A0025002400230036006F008000C00014
:00000001FF
