:100000000C9434000C9451000C9451000C94510049
:100010000C9451000C9451000C9451000C9451001C
:100020000C9451000C9451000C9451000C9451000C
:100030000C9451000C9451000C9451000C945100FC
:100040000C9451000C9451000C9451000C945100EC
:100050000C9451000C9451000C9451000C945100DC
:100060000C9451000C94510011241FBECFEFD8E026
:10007000DEBFCDBF11E0A0E0B1E0ECE9F3E002C0EB
:1000800005900D92AE30B107D9F721E0AEE0B1E0B6
:1000900001C01D92A031B207E1F70E9477010C94D4
:1000A000CC010C940000E0910A01F0910B018081D9
:1000B0008268808381818A618183828182838CE9E5
:1000C00087838FE3868387E0818780ED8087148232
:1000D000158280E090E008959C0144E6429FC001B3
:1000E000439F900D112464EB70E00E94A40123E172
:1000F000269FC001279F900D11248053984FE091B7
:100100000A01F0910B019187808780E090E00895CB
:10011000E0910A01F0910B0187E0818780ED8087F3
:100120000895E0910A01F0910B018FE081878FE93A
:1001300080870895CF93DF9300D0CDB7DEB747EB2C
:1001400052E0849F9001859F300D949F300D1124C3
:100150001A82198289819A818217930728F00F9059
:100160000F90DF91CF91089589819A8101969A83AA
:100170008983F0CFEF92FF920F931F93CF93DF937A
:1001800000D0CDB7DEB7F82EE92E8B011A82198286
:1001900089819A818017910748F00F900F90DF9125
:1001A000CF911F910F91FF90EF9008958F2D9E2D6D
:1001B0000E949A0089819A8101969A838983E8CF67
:1001C0000895E0910C01F0910D0186E0828388E1B1
:1001D0008183158287E684830895E0910C01F09174
:1001E0000D01908195FFFDCF868308950F931F9396
:1001F000CF93DF938C01C0E0F801EC0FF11DC7FD38
:10020000FA95D0818D2F0E94ED00CF5FD111F4CFF0
:10021000DF91CF911F910F910895CF92DF92EF92CE
:10022000FF920F931F93CF93DF9300D0CDB7DEB72C
:10023000482F8B012DB73EB73A832983EDB7FEB720
:10024000E61BF70B0FB6F894FEBF0FBEEDBF2DB740
:100250003EB72F5F3F4FFB018AE0E82EF12C1E16C0
:100260001F06C4F07901C12CD12CC016D106FCF0B8
:1002700029813A810FB6F8943EBF0FBE2DBF0F9073
:100280000F90DF91CF911F910F91FF90EF90DF9032
:10029000CF900895842FB7010E94A401462F972F75
:1002A0003197D901AE0FBF1F805D8C93D8CFF70176
:1002B00081917F010E94ED00FFEFCF1ADF0AD5CFB9
:1002C000E0910C01F0910D018081082E000C990B3A
:1002D000892F881F8827881F90E00895E0910C01DE
:1002E000F0910D01808187FFFDCF86810895E09117
:1002F0000201F0910301808182608083E09100011E
:10030000F091010180818C6080830E9453000E94E3
:10031000E10088EC90E00E946C0062E370E082E310
:1003200090E00E94BA000E94880062E370E082E3DD
:1003300090E00E94BA000E94910062E370E082E3C4
:1003400090E00E94BA00E5CF97FB072E16F40094C8
:1003500007D077FD09D00E94B80107FC05D03EF414
:10036000909581959F4F0895709561957F4F089561
:10037000AA1BBB1B51E107C0AA1FBB1FA617B707CB
:1003800010F0A61BB70B881F991F5A95A9F78095E7
:0C0390009095BC01CD010895F894FFCFBA
:0E039C0025002400230036006F008000C00002
:00000001FF
