:100000000C94B1000C94CE000C94CE000C94CE0055
:100010000C94CE000C94CE000C94CE000C94CE0028
:100020000C94CE000C94CE000C94CE000C94CE0018
:100030000C94CE000C94CE000C94CE000C94CE0008
:100040000C94CE000C94CE000C94CE000C94CE00F8
:100050000C94CE000C94CE000C94CE000C94CE00E8
:100060000C94CE000C94CE0000407A10F35A00A0FD
:10007000724E18090010A5D4E80000E87648170071
:1000800000E40B54020000CA9A3B000000E1F505B1
:10009000000080969800000040420F000000A086FB
:1000A00001000000102700000000E803000000002D
:1000B0006400000000000A000000000001000000D1
:1000C00000002C76D888DC674F0823DFC1DFAE59EB
:1000D000E1B1B796E5E3E453C63AE651997696E87E
:1000E000E6C28426EB898C9B62ED407C6FFCEFBC02
:1000F0009C9F40F2BAA56FA5F490055A2AF75C932D
:100100006B6CF9676DC11BFCE0E40D47FEF520E662
:10011000B500D0ED902E0300943577050080841E45
:10012000080000204E0A000000C80C333333330FA0
:10013000986E12831141EF8D2114893BE65516CF3D
:10014000FEE6DB18D1844B381BF77C1D901DA4BB49
:10015000E424203284725E228100C9F124ECA1E5FE
:100160003D2711241FBECFEFD8E0DEBFCDBF11E089
:10017000A0E0B1E0EAE7FFE002C005900D92A433F1
:10018000B107D9F721E0A4E3B1E001C01D92A8397D
:10019000B207E1F70E941B030C94BB070C9400000C
:1001A000CF93DF93D82FC92F88E091E00E942201DE
:1001B00064E070E08D2F9C2F0E94660181E391E046
:1001C000DF91CF910C94220182E191E00E94220103
:1001D0000895CF93DF93D82FC92F81E291E00E9439
:1001E000220163E070E08D2F9C2F0E9466018FE258
:1001F00091E0DF91CF910C942201E0910601F09102
:100200000701808180780895E0910601F09107014F
:10021000158287E6848386E0828388E1818308955E
:10022000E0910601F0910701908195FFFDCF868353
:100230000895E0910601F0910701808187FFFDCFCD
:1002400086810895CF93DF93EC018991882319F07B
:100250000E941001FACFDF91CF910895AC0181E0A7
:1002600090E020E030E0261737075CF4FC01E49FC3
:10027000C001E59F900DF49F900D11242F5F3F4F1B
:10028000F2CF0895CF92DF92EF92FF92CF93DF9358
:100290006C01EB0161E070E080E090E0E0E0F0E014
:1002A0000D2C000CEE08FF08EC17FD0744F49B0131
:1002B000AC01C701B6010E9472033196F5CFDF9100
:1002C000CF91FF90EF90DF90CF900895CF92DF9283
:1002D000EF92FF921F93CF93DF93CDB7DEB72797AF
:1002E0000FB6F894DEBF0FBECDBF9C01AB014150ED
:1002F0005109EE24E394F12C80E090E0EAE08417C9
:10030000950744F4D701EA9F7001EB9FF00C11248C
:100310000196F5CF37FD03C0462F10E008C08DE2EF
:10032000898331952195310941E0460F11E08AE03A
:10033000C82ED12C812F012E000C990BE1E0F0E0AA
:10034000EC0FFD1FE80FF91F141774F4C901B70172
:100350000E949603605D60839C01C701B6010E9404
:1003600096037B011F5FE6CF1082CE0101960E94AB
:10037000220127960FB6F894DEBF0FBECDBFDF91E6
:10038000CF911F91FF90EF90DF90CF9008952F9223
:100390003F924F925F926F927F928F929F92AF9215
:1003A000BF92CF92DF92EF92FF920F931F93CF9362
:1003B000DF93CDB7DEB72C970FB6F894DEBF0FBE34
:1003C000CDBF6B877C87782E692E8A015A0181E028
:1003D000A81AB108C12CD12C7601C394E0E0F0E05A
:1003E000EA15FB0554F4AAE0B0E0A70196010E94CB
:1003F000C9036B017C013196F3CFFE0131965F0199
:100400004F018AE0282E312C412C512CC4018A192D
:100410009B0980179107CCF46B857C85872D962DE1
:10042000A70196010E94AA03205DF40121934F01C8
:100430006B877C87782E692EC701B601A2019101D6
:100440000E94AA0369017A01E1CF17FF02C000E010
:1004500010E0F501E00FF11F1082C5010E9422019A
:100460002C960FB6F894DEBF0FBECDBFDF91CF91B3
:100470001F910F91FF90EF90DF90CF90BF90AF90C2
:100480009F908F907F906F905F904F903F902F90B4
:100490000895BF92CF92DF92EF92FF920F931F9336
:1004A000CF93DF93CDB7DEB72A970FB6F894DEBFB0
:1004B0000FBECDBF20E030E048EC52E40E9464045F
:1004C0000E940504362F272FFE0131967E0184E01D
:1004D000E80EF11C04E610E0BE2E4F2F8AE0C82E75
:1004E000D12C832F922FB8010E949603605D6193F7
:1004F000382F292FC801B6010E9496038B01EE15F3
:10050000FF0579F71C828B2D942F0E9422012A96D9
:100510000FB6F894DEBF0FBECDBFDF91CF911F9114
:100520000F91FF90EF90DF90CF90BF9008950F93C1
:100530001F93CF93DF93CDB7DEB7C055D1090FB668
:10054000F894DEBF0FBECDBF8E010F5F1F4F0E941C
:10055000F904C8010E942201C05BDF4F0FB6F89476
:10056000DEBF0FBECDBFDF91CF911F910F910895D8
:10057000CF93DF930E941901C4E3D1E09E0124537D
:1005800031408D3041F08A3031F0882321F0899359
:100590000E941901F3CFF901EC5CFE4F108284E355
:1005A00091E0DF91CF910895CF93DF9300D0CDB745
:1005B000DEB747EB52E0849F9001859F300D949FFA
:1005C000300D11241A82198289819A81821793072A
:1005D00028F00F900F90DF91CF91089589819A8133
:1005E00001969A838983F0CFEF92FF920F931F9326
:1005F000CF93DF9300D0CDB7DEB7F82EE92E8B0175
:100600001A82198289819A818017910748F00F9088
:100610000F90DF91CF911F910F91FF90EF90089570
:100620008F2D9E2D0E94D40289819A8101969A83F2
:100630008983E8CF08950F92CDB7DEB71982E09194
:100640000201F091030181E080830E94040186E3AE
:10065000E82EF12CE0910001F09101018081816090
:1006600080830E941A03E0910001F09101018081D2
:100670008E7F808300E010E08981882351F000376D
:10068000144968F164E070E082E390E00E94F402B3
:10069000E1CF0A3784E91807A9F3E0910401F0914A
:1006A00005018081827089830E941A03065F1F4FB3
:1006B000E3CF065F1F4F0E941A03E0910401F091FF
:1006C00005018081827089838981181694F3C8019D
:1006D000B7010E948203CB010E94E900D3CF00E062
:1006E00010E0F2CFDB018F939F930E94C903BF916B
:1006F000AF91A29F800D911DA39F900DB29F900D71
:1007000011240895AA1BBB1B51E107C0AA1FBB1FE0
:10071000A617B70710F0A61BB70B881F991F5A958D
:10072000A9F780959095BC01CD01089597FB072E00
:1007300016F4009407D077FD09D00E94820307FCCD
:1007400005D03EF4909581959F4F089570956195E1
:100750007F4F0895052E97FB1EF400940E94C1035D
:1007600057FD07D00E94D40307FC03D04EF40C942D
:10077000C10350954095309521953F4F4F4F5F4FA6
:10078000089590958095709561957F4F8F4F9F4FFD
:1007900008950E94F603A59F900DB49F900DA49F0D
:1007A000800D911D11240895A1E21A2EAA1BBB1BD6
:1007B000FD010DC0AA1FBB1FEE1FFF1FA217B3072D
:1007C000E407F50720F0A21BB30BE40BF50B661F43
:1007D000771F881F991F1A9469F760957095809507
:1007E00090959B01AC01BD01CF010895A29FB0017E
:1007F000B39FC001A39F700D811D1124911DB29F55
:10080000700D811D1124911D08950E940C0468949F
:10081000B1110C945E0408950E94430488F09F5720
:1008200098F0B92F9927B751B0F0E1F0660F771F14
:10083000881F991F1AF0BA95C9F714C0B13091F00A
:100840000E945D04B1E008950C945D04672F782F39
:100850008827B85F39F0B93FCCF3869577956795CF
:10086000B395D9F73EF490958095709561957F4F3B
:100870008F4F9F4F089557FD9058440F551F59F0C3
:100880005F3F71F04795880F97FB991F61F09F3F7D
:1008900079F087950895121613061406551FF2CFA6
:1008A0004695F1DF08C0161617061806991FF1CFF6
:1008B00086957105610508940895E894BB2766271D
:1008C0007727CB0197F908950E9477040C94E804E8
:1008D0000E94DA0438F00E94E10420F0952311F020
:1008E0000C94D1040C94D70411240C945E040E943F
:1008F0003B0470F3959FC1F3950F50E0551F629F25
:10090000F001729FBB27F00DB11D639FAA27F00D68
:10091000B11DAA1F649F6627B00DA11D661F829F8F
:100920002227B00DA11D621F739FB00DA11D621F74
:10093000839FA00D611D221F749F3327A00D611D91
:10094000231F849F600D211D822F762F6A2F112473
:100950009F5750409AF0F1F088234AF0EE0FFF1FA6
:10096000BB1F661F771F881F91505040A9F79E3FFD
:10097000510580F00C94D1040C945E045F3FE4F3C5
:10098000983ED4F3869577956795B795F795E79553
:100990009F5FC1F7FE2B880F911D9695879597F95C
:1009A000089597F99F6780E870E060E008959FEFF1
:1009B00080EC089500240A941616170618060906F6
:1009C000089500240A9412161306140605060895C5
:1009D000092E0394000C11F4882352F0BB0F40F44D
:1009E000BF2B11F460FF04C06F5F7F4F8F4F9F4F8D
:1009F0000895EF920F931F93CF93DF9300D000D011
:100A00000F92CDB7DEB7322F0D8354E047FD54E18E
:100A1000242F27FD2195E52E032F4D81512F69832A
:100A20007A838B839C8369817A818B819C810E94EC
:100A300026058D81912F0F900F900F900F900F90A2
:100A4000DF91CF911F910F91EF900895ADE0B0E04D
:100A5000ECE2F5E00C9485076A01722E602EFE2C04
:100A6000102F2BE3201708F41BE31F5F012F27E053
:100A7000AE014F5F5F4F6A877B878C879D876A8552
:100A80007B858C859D850E94A5064C010981902F50
:100A90009970802F88703F2D3071913039F4882300
:100AA00009F4FAC07DE2A72E84E0BBC0B82EF1FCA9
:100AB000ADC04F2D4170A42E442309F477C081119D
:100AC000ACC002FDF0C0F0E23F2E540197FE02C020
:100AD000A12CB12C41E050E0311002C040E050E0C8
:100AE000C5010196840F951F462C512CA2014F5F22
:100AF0005F4F611002C040E050E0840F951F472D0A
:100B000050E0272D281B841795070CF020E03601B4
:100B1000FFEF6F1A7F0A332309F4CCC0332019F09A
:100B2000D6013C926301180D3A81802F8071882391
:100B300019F0313309F4115011160CF0E7C01930D7
:100B400008F018E0F401EA19FB0941E050E04C0F0D
:100B50005D1FE40FF51FA401411B510951944194FD
:100B600051087EE28A149B040CF4D2C04A155B053E
:100B70000CF0CEC09181B1E0AB1AB10836016FEF35
:100B8000661A760A3196A414B5040CF4C3C0D601D3
:100B90009C93BFEFAB16BB0639F4360162E0660EDC
:100BA000711CD60111967C936301DCCF811138C092
:100BB000502F5470352E552309F487CF83E0E72C4E
:100BC000E81A871508F0E12C31110BC00E2D10E04A
:100BD000A80160E270E0C6010E947D07C00ED11E30
:100BE000E12CBB2019F0F601B1926F0186010D5F77
:100BF0001F4F29E69EE686E6F2FE03C029E49EE446
:100C000086E4F60120839183828332C0811141C042
:100C100002FD4DC0EBE23E2E58CF60E2A62E44CF3F
:100C200083E0E72CE81A871508F0E12C31110BC09E
:100C30000E2D10E0A80160E270E0C6010E947D0761
:100C4000C00ED11EE12CAA2019F0F601A1926F016D
:100C500086010D5F1F4F91E68EE6F2FE02C091E421
:100C60008EE4D6018C9311969C93119712968C93D7
:100C7000F12CA70160E270E0C8010E947D07F80135
:100C8000EE0DFF1D10828EEF9FEF2D96E1E10C948B
:100C9000A1075BE2A52E08CF4DE2B42E02FD05C0F0
:100CA0008DE2382E12CF20E2B22E84E088CF9BE274
:100CB000B92EFBCFF3FC18C0E22EF12CA70160E2A5
:100CC00070E0C6010E947D0736016E0C7F1C20E09B
:100CD000332071F0FFEFEF1AFF0AD3013C9220E0BE
:100CE00036016E0C7F1C04C0332071F0F601308297
:100CF000C22ED12CA60160E370E0C3010E947D07E3
:100D0000C60CD71C20E00FCF3601F2CF11E01ACF6E
:100D100090E331CF8A149B0439F4363320F4353311
:100D200019F4811101C091E3F6019083E22EF12CB8
:100D3000A70160E270E0C3010E947D07F301EE0DA0
:100D4000FF1D108280E090E0A0CF283008F027E05F
:100D50003327DA01990F311D87FD916000966105F7
:100D6000710539F432602E5F3D9330E32A95E1F747
:100D700008959F3F30F080387105610509F03C5FB0
:100D80003C5F3D93913008F08068911DDF93CF93D5
:100D90001F930F93FF92EF92192F987F9695E92F4B
:100DA00096959695E90FFF27EE53FF4F9927332726
:100DB000EE24FF24A701E70105900894079428F486
:100DC000360FE71EF81E491F511D660F771F881F3B
:100DD000991F0694A1F70590079428F4E70EF81ED2
:100DE000491F561FC11D770F881F991F661F069444
:100DF000A1F70590079428F4F80E491F561FC71F46
:100E0000D11D880F991F661F771F0694A1F70590C3
:100E1000079420F4490F561FC71FD81F990F661F4C
:100E2000771F881F0694A9F784911095177041F0D9
:100E3000D695C79557954795F794E7941A95C1F7B6
:100E4000E8E6F0E0689415901591359165919591DB
:100E500005907FE27395E118F10A430B560BC90B1D
:100E6000D009C0F7E10CF11E431F561FC91FD01D4A
:100E70007EF4703311F48A95E6CFE894015030F097
:100E8000080F0AF40027021708F4202F2395022FD9
:100E90007A3328F079E37D932A95E9F710C07D93A2
:100EA0002A9589F60694979567953795179517941F
:100EB000E118F10A430B560BC90BD00998F02395A2
:100EC0007E9173957A3308F070E37C932013B8F722
:100ED0007E9170617D9330F0839571E37D9370E333
:100EE0002A95E1F71124EF90FF900F911F91CF9178
:100EF000DF91992787FD90950895DC0101C06D93DE
:100F000041505040E0F708952F923F924F925F92E8
:100F10006F927F928F929F92AF92BF92CF92DF9209
:100F2000EF92FF920F931F93CF93DF93CDB7DEB76E
:100F3000CA1BDB0B0FB6F894DEBF0FBECDBF099402
:100F40002A88398848885F846E847D848C849B8459
:100F5000AA84B984C884DF80EE80FD800C811B8167
:100F6000AA81B981CE0FD11D0FB6F894DEBF0FBE96
:0A0F7000CDBFED010895F894FFCF06
:100F7A00250024002300C0000D76616C6F723A20B0
:100F8A00090046756572612064652072616E676F3B
:100F9A00000D44697374616E6369613A20090063E4
:040FAA006D0A0000CC
:00000001FF
