:100000000C9434000C9451000C9451000C94510049
:100010000C9451000C9451000C9451000C9451001C
:100020000C9451000C9451000C9451000C9451000C
:100030000C9451000C9451000C9451000C945100FC
:100040000C9451000C9451000C9451000C945100EC
:100050000C9451000C9451000C9451000C945100DC
:100060000C9451000C94510011241FBECFEFD8E026
:10007000DEBFCDBF11E0A0E0B1E0E8E9F3E002C0EF
:1000800005900D92AA30B107D9F721E0AAE0B1E0BE
:1000900001C01D92AC30B207E1F70E946C010C94D4
:1000A000CA010C940000E0910601F09107018081E3
:1000B0008268808381818A618183828182838CE9E5
:1000C00087838FE386838FE081878FE9808714821F
:1000D000158280E090E008950F931F9324E6AC0111
:1000E000249FC001259F900D112464EB70E00E94B5
:1000F0008C0123E130E0DB010E94A001DC01CB0197
:100100008053984FAF4FBF4F092F1A2F2B2F3327F4
:1001100027FD3A95E0910601F0910701018780875C
:1001200080E090E01F910F910895CF93DF9300D06E
:10013000CDB7DEB727EB32E0AC01429FC001439F51
:10014000900D529F900D11241A82198229813A81B3
:100150002817390738F429813A812F5F3F4F3A83B6
:100160002983F4CF0F900F90DF91CF910895EF92F4
:10017000FF920F931F93CF93DF9300D0CDB7DEB7DD
:100180007C018B011A82198289819A8180179107DB
:1001900048F4C7010E94950089819A8101969A834B
:1001A0008983F2CF0F900F90DF91CF911F910F9124
:1001B000FF90EF9008950895E0910801F0910901F2
:1001C00086E0828388E18183158287E684830895AF
:1001D000E0910801F0910901908195FFFDCF8683A0
:1001E00008950F931F93CF93DF938C01C0E0F80124
:1001F000EC0FF11DC7FDFA95D0818D2F0E94E8000C
:10020000CF5FD111F4CFDF91CF911F910F9108955E
:10021000AF92BF92CF92DF92EF92FF920F931F9314
:10022000CF93DF93CDB7DEB7AC018B01ADB6BEB6D1
:100230008DB79EB7861B970B0FB6F8949EBF0FBE67
:100240008DBFEDB7FEB731967F019B01EAE0F0E08C
:10025000121613066CF4CA01BF010E948C01AB0197
:1002600021503109D701A20FB31F805D8C93F0CFCD
:100270006701C6018E199F098017910734F4F601B2
:1002800081916F010E94E800F4CF0FB6F894BEBED2
:100290000FBEADBEDF91CF911F910F91FF90EF90F8
:1002A000DF90CF90BF90AF900895E0910801F0915A
:1002B00009018081082E000C990B892F881F88273F
:1002C000881F90E00895E0910801F0910901808174
:1002D00087FFFDCF86810895E0910001F091010133
:1002E0008081826080830E9453000E94DC0080E055
:1002F00090E00E946C0064E170E082E390E00E9474
:10030000B70084EB90E00E946C0064E170E082E34F
:1003100090E00E94B700EBCF97FB072E16F40094F5
:1003200007D077FD09D00E94A70107FC05D03EF455
:10033000909581959F4F0895709561957F4F089591
:100340000E94BB01B7FF0895821B930B0895AA1B5F
:10035000BB1B51E107C0AA1FBB1FA617B70710F0B0
:10036000A61BB70B881F991F5A95A9F780959095E2
:10037000BC01CD010895A29FB001B39FC001A39F0E
:10038000700D811D1124911DB29F700D811D1124CE
:08039000911D0895F894FFCFC0
:0A039800240036006F008000C00052
:00000001FF
