:100000000C9434000C9449000C9449000C94490061
:100010000C9449000C9449000C9449000C9449003C
:100020000C9449000C9449000C9449000C9449002C
:100030000C9449000C9449000C9449000C9449001C
:100040000C9449000C9449000C9449000C9449000C
:100050000C9449000C9449000C9449000C944900FC
:100060000C9449000C94490011241FBECFEFD8E036
:10007000DEBFCDBF11E0A0E0B1E0E8E4F3E002C0F4
:1000800005900D92AE30B107D9F70E9446010C944D
:10009000A2010C940000E0910601F091070186E0B6
:1000A000828388E18183158287E684830895E091C5
:1000B0000601F0910701908195FFFDCF8683089599
:1000C0000F931F93CF93DF938C01C0E0F801EC0FE7
:1000D000F11DC7FDFA95D0818D2F0E945700CF5F8B
:1000E000D111F4CFDF91CF911F910F910895CF924D
:1000F000DF92EF92FF920F931F93CF93DF9300D085
:10010000CDB7DEB7482F8B012DB73EB73A83298391
:10011000EDB7FEB7E61BF70B0FB6F894FEBF0FBEA8
:10012000EDBF2DB73EB72F5F3F4FFB018AE0E82EB2
:10013000F12C1E161F06C4F07901C12CD12CC0165B
:10014000D106FCF029813A810FB6F8943EBF0FBE6C
:100150002DBF0F900F90DF91CF911F910F91FF90C6
:10016000EF90DF90CF900895842FB7010E947A011D
:10017000462F972F3197D901AE0FBF1F805D8C930B
:10018000D8CFF70181917F010E945700FFEFCF1A6E
:10019000DF0AD5CFE0910601F09107018081082E9A
:1001A000000C990B892F881F8827881F90E00895DD
:1001B000E0910601F0910701808187FFFDCF8681E4
:1001C0000895CF93DF9300D0CDB7DEB747EB52E071
:1001D000849F9001859F300D949F300D11241A82C9
:1001E000198289819A818217930728F00F900F90C6
:1001F000DF91CF91089589819A8101969A838983AD
:10020000F0CFEF92FF920F931F93CF93DF9300D025
:10021000CDB7DEB7F82EE92E8B011A8219828981BB
:100220009A818017910748F00F900F90DF91CF913E
:100230001F910F91FF90EF9008958F2D9E2D0E949A
:10024000E10089819A8101969A838983E8CF089594
:10025000E0910801F091090180E4848387E88283BA
:100260000895893080F4E0910801F09109019481AA
:10027000892B8483828180648283828186FDFDCF85
:100280008081918108958FEF9FEF0895E0910201A1
:10029000F09103011082E0910001F091010183E0EF
:1002A00080830E944B000E9428016AE070E08AE58A
:1002B00090E00E940101E0910401F0910501C081EC
:1002C00084E190E00E94E10080E00E94310164E05E
:1002D00070E090E00E9477008AE091E00E94600068
:1002E0008AE590E00E94E100C0FDE5CF80E20E9437
:1002F0005700E1CF97FB072E16F4009407D077FD47
:1003000009D00E948E0107FC05D03EF4909581959E
:100310009F4F0895709561957F4F0895AA1BBB1B51
:1003200051E107C0AA1FBB1FA617B70710F0A61BF5
:10033000B70B881F991F5A95A9F780959095BC0116
:08034000CD010895F894FFCFF0
:0E034800250024002300C00078000D0A0000EC
:00000001FF
