:100000000C9434000C943E000C943E000C943E0082
:100010000C943E000C943E000C943E000C943E0068
:100020000C943E000C943E000C943E000C943E0058
:100030000C943E000C943E000C943E000C943E0048
:100040000C943E000C943E000C943E000C943E0038
:100050000C943E000C943E000C943E000C943E0028
:100060000C943E000C943E0011241FBECFEFD8E04C
:10007000DEBFCDBF0E9440000C947F000C940000B6
:1000800000D000D0CDB7DEB787E084B9289B1CC074
:1000900085B1876085B919821A821B821C82898189
:1000A0009A81AB81BC8180349D40A340B10574F737
:1000B00089819A81AB81BC810196A11DB11D898383
:1000C0009A83AB83BC83EBCF85B115B819821A82B2
:1000D0001B821C8289819A81AB81BC8180349D40C6
:1000E000A340B1059CF689819A81AB81BC810196C0
:1000F000A11DB11D89839A83AB83BC83EBCFF89498
:02010000FFCF2F
:00000001FF
