:100000000C9434000C943E000C943E000C943E0082
:100010000C943E000C943E000C943E000C943E0068
:100020000C943E000C943E000C943E000C943E0058
:100030000C943E000C943E000C943E000C943E0048
:100040000C943E000C943E000C943E000C943E0038
:100050000C943E000C943E000C943E000C943E0028
:100060000C943E000C943E0011241FBECFEFD8E04C
:10007000DEBFCDBF0E9441000C9486000C940000AE
:10008000089500D000D00F92CDB7DEB787E284B9D3
:1000900083B188708D838D8181111CC085B1887F6B
:1000A00085B919821A821B821C8289819A81AB814F
:1000B000BC81803A9648A140B10554F789819A8164
:1000C000AB81BC810196A11DB11D89839A83AB834D
:1000D000BC83EBCF85B1876085B919821A821B82F8
:1000E0001C8289819A81AB81BC81803A9648A1406B
:1000F000B10574F689819A81AB81BC810196A11DFD
:10010000B11D89839A83AB83BC83EBCFF894FFCF77
:00000001FF
