:100000000C9434000C943E000C943E000C943E0082
:100010000C943E000C943E000C943E000C943E0068
:100020000C943E000C943E000C943E000C943E0058
:100030000C943E000C943E000C943E000C943E0048
:100040000C943E000C943E000C943E000C943E0038
:100050000C943E000C943E000C943E000C943E0028
:100060000C943E000C943E0011241FBECFEFD8E04C
:10007000DEBFCDBF0E9440000C947D000C940000B8
:1000800000D000D0CDB7DEB780E284B985B920E2D8
:1000900019821A821B821C8289819A81AB81BC8160
:1000A00080349244AF40B10584F025B919821A8298
:1000B0001B821C8289819A81AB81BC81803A9648DF
:1000C000A140B10574F015B8E3CF89819A81AB8165
:1000D000BC810196A11DB11D89839A83AB83BC832A
:1000E000DBCF89819A81AB81BC810196A11DB11DB5
:0E00F00089839A83AB83BC83DDCFF894FFCF66
:00000001FF
