:100000000C9434000C9449000C9449000C94490061
:100010000C9449000C9449000C9449000C9449003C
:100020000C9449000C9449000C9449000C9449002C
:100030000C9449000C9449000C9449000C9449001C
:100040000C9449000C9449000C9449000C9449000C
:100050000C9449000C9449000C9449000C944900FC
:100060000C9449000C94490011241FBECFEFD8E036
:10007000DEBFCDBF11E0A0E0B1E0E6EFF1E002C0ED
:1000800005900D92A430B107D9F70E94DF000C94BF
:10009000F9000C940000CF93DF9300D000D000D083
:1000A000CDB7DEB79E838D832D813E81822F932F26
:1000B00082959295907F9827807F9827820F931F33
:1000C000880F991F880F991F820F931F880F991F00
:1000D000820F931F282F392F220F331F220F331F18
:1000E000820F931F9A8389831C821B8205C08B8198
:1000F0009C8101969C838B832B813C8189819A8191
:1001000028173907A0F3000000000F900F900F9000
:100110000F900F900F90DF91CF910895CF93DF93C1
:1001200000D000D000D0CDB7DEB782E090E09A8357
:1001300089831B821C821D821E828B819C81AD81E2
:10014000BE810196A11DB11D8B839C83AD83BE83AF
:100150008B819C81AD81BE810196A11DB11D8B83D8
:100160009C83AD83BE838B819C81AD81BE810196D2
:10017000A11DB11D8B839C83AD83BE838B819C812C
:10018000AD81BE810196A11DB11D8B839C83AD8382
:10019000BE831B821C821D821E8281E090E0A0E053
:1001A000B0E08B839C83AD83BE8300000F900F90E3
:1001B0000F900F900F900F90DF91CF910895E091E5
:1001C0000201F091030180E28083C0E2E09100012E
:1001D000F0910101108284E190E00E944B00E091D7
:1001E0000001F0910101C08384E190E00E944B0086
:0601F000EDCFF894FFCFF3
:0401F60025002400BC
:00000001FF
